:03000000020006F5
:03005F0002000399
:03000300020B26C7
:20006200AE82AF83EE4F60147C657D001CBCFF011DEC4D70F71EBEFF011F80E822C292D2CD
:200082009275210375823E1200B075210375823F1200B07521037582B81200B07521037593
:2000A20082401200B07521037582C00200B0AF82852182C0071200D3D007C2978F82020070
:2000C200C8D2970200C8AF82C2968FA0D295C29522E582FF24FC4026EF2F2F9000E173026C
:2000E20000ED0200F20200F70200FCC294C29322D294C29322C294D29322D294D293227E34
:20010200B87F008E82752103C007C0061200B07521037582401200B0D006D0077C007D0076
:20012200758200C007C006C005C0041200C3D004D005D006D0070CBC00010DC3EC9440ED3F
:200142006480948040DA0EBE00010FC374BF9EE464808FF063F08095F050A822AD82AE8302
:20016200AFF08D828E838FF0120D61FC60188C820DBD00010EC007C006C0051201BBD0056F
:20018200D006D00780DC22E58275F004A42481FE740D35F0FF7D00ED2EF582E43FF583E4E8
:2001A20093F582C007C006C0051200C3D005D006D0070DBD040040DF22AF82C3EF64809420
:2001C200C1405674DA8FF063F08095F0404B7E00EFFC3395E0FDEC24BFC2D575F00730E71F
:2001E20004B2D5F404A430D50AF42401C5F0F43400C5F024A9FC740D35F0FDEE2CF582E43B
:200202003DF583E493F582C007C0061200C3D006D0070EBE070040B822C3EF648094E140F2
:200222005674FA8FF063F08095F0404B7E00EFFC3395E0FDEC249FC2D575F00730E704B209
:20024200D5F404A430D50AF42401C5F0F43400C5F0245FFC740E35F0FDEE2CF582E43DF5A7
:2002620083E493F582C007C0061200C3D006D0070EBE070040B822BF20137F00758200C0E7
:20028200071200C3D0070FBF070040F0227F00EF900F1593F582C0071200C3D0070FBF070E
:2002A2000040EC2285822285832385F024F525752700752800752900752A00752B00752C30
:2002C20000752D00E4F52EF52FF530E5224523452445257005F582020189752600C3E49599
:2002E20022E49523E49524E464808525F063F08095F0504DAA260526EA2427F975080AE4B6
:20030200F509F50AF50B8522828523838524F0E525C001120CC0AA82D001A70275080AE437
:20032200F509F50AF50B8522828523838524F0E525120D0F85822285832385F024F5258012
:200342009CE52614FFEF20E720758200C0071200C3D007EF2427F98782C0071201897582CB
:20036200001200C3D0071F80DC22AE82E583FF20E738C3743F9EE464808FF063F08095F0A9
:200382004028758201C007C0061200D3AD3174B82DF5827521011200B0D006D0078E0574CE
:2003A200402DF5827521010200B0C3743F9EE464808FF063F08095F05030C3EE9480EF64C3
:2003C2008094805025758202C007C0061200D3AD3174B82DF5827521021200B0D006D007F2
:2003E200EE04F5827521020200B0227E007F00758201C007C0061200D3E4F531F532F58217
:20040200F58312036CD006D0077D007C008E028F03EA241CF582EB340FF583E493F582C024
:2004220005C004C003C0021200C3D002D003D004D0050ABA00010BBC3F0040208C00790019
:200442008D3175320088828983C005C004C003C00212036CD002D003D004D0050CBC8000FA
:2004620040AF8A068B07758201C007C006C0051200D3D0058D037C0074012BF531E43CF57E
:2004820032900000C00512036CD005D006D0070DBD0200500302040D7582011200D375311B
:2004A2000475320090000012036C7E007F007D047C008E028F03EA240DF582EB3411F58328
:2004C200E493F582C005C004C003C0021200C3D002D003D004D0050ABA00010BBC3F0040F0
:2004E200208C0079008D3175320088828983C005C004C003C00212036CD002D003D004D082
:20050200050CBC800040AF8A068B07758201C007C006C0051200D3D0058D037C0074012BCB
:20052200F531E43CF532900000C00512036CD005D006D0070DBD070050030204B222AF82C5
:200542007E00BF316D758201C0061200D385353185363285338285348312036CD0067F00F7
:200562008F047D00C3EC9537ED64808538F063F08095F0503DBF3F004023758202C007C0AA
:20058200061200D3D006D007EE7012853531853632900040C00712036CD0077E019013FF69
:2005A200E493F582C007C0061200C3D006D0070F80AE227582011200D3E4F531F532F58258
:2005C200F58312036C7E007F007D00ED90137E93F582C007C006C0051200C3D005D006D0EC
:2005E2000775F01AED84E5F0701B0EBE00010F8E318F32900000C007C006C00512036CD013
:2006020005D006D0070DED247F50C0E4F531F53290001A12036C7E007F007D00ED90137E95
:2006220093F582C007C006C0051200C3D005D006D00775F01AED84E5F0701B0EBE00010FD9
:200642008E318F3290001AC007C006C00512036CD005D006D0070DED247F50C02212007FB9
:200662001201019000012275080F750900120C17AE82AF837C007D00C3EC9EED9F50070CDB
:20068200BC00F50D80F222D290D29122D291D2909001F4120669C2909001F4020669C291B9
:2006A2009000FA120669D2909000FA120669D2919000FA120669C2909000FA020669C291B2
:2006C2009000FA120669C2909000FA120669D2919000FA120669D2909000FA020669C29192
:2006E2009000FA120669C2909000FA120669D2919001F4020669C2919000FA120669D29077
:200702009000FA120669D2919001F4020669AF827E00C2919000FAC007C006120669D00603
:20072200D0078F047D008EF005F08006EC2CFCED33FDD5F0F7EC30E704D2908002C290901D
:2007420000FAC007C006120669D2919001F4120669D006D0070EBE080040B7C291D2909069
:2007620001F4120669D2919001F4120669A290227F007E00C291D2909001F4C007C006126E
:200782000669D2919000FA120669D006D007A290E433FD7407C39EF5F005F0ED800225E05D
:2007A200D5F0FB42079000FAC007C006120669D006D0070EBE080040BB8F8222AE82AF8385
:2007C2007C007D00C3EC9EED9F50070CBC00F50D80F222AF82C00712068ED0077582D0C094
:2007E20007120710D0079200E433FEBE0109C00712068ED00780E58F82120710853E821247
:2008020007100206C0AF82C00712068ED0077582D0C007120710D0079201E433FEBE010984
:20082200C00712068ED00780E58F821207101206A07582D1120710120772AF82C00712068F
:20084200F8C2909001F4120669D2909001F4120669D0078F8222AF82C00712068ED00775EA
:2008620082D0C007120710D0079202E433FEBE0109C00712068ED00780E58F821207107E8B
:20088200007F00AC427D00C3EE9CEF9D5027EE253FFBEF3540FCAD418B828C838DF0120DC9
:2008A20061F582C007C006120710D006D0070EBE00D10F80CE0206C0AF82C00712068ED0CB
:2008C200077582D0C007120710D0079203E433FEBE0109C00712068ED00780E58F8212073C
:2008E200101206A07582D1120710AD43AE44AF45C007C006C005120772AC82D005D006D0E1
:20090200078D828E838FF0EC120CA5754801754900C3E5489546E5499547504AC007C00608
:20092200C0051206E0D005D006D007E5482DF8E5493EF98F02C007C006C005C002C001C099
:2009420000120772AC82D000D001D002D005D006D007888289838AF0EC120CA50548E4B5C2
:2009620048AF054980AB1206F8C2909001F4120669D2909001F4020669AF8275F00AE54C74
:2009820084C454F0FE75F00AE54C84E5F04EF53975F00AE54B84C454F0FE75F00AE54B840A
:2009A200E5F04EF53A75F00AE54A84C454F0FE75F00AE54A84E5F0FD4EF53BBF0002800503
:2009C200BF011080087440453BF53B80067460453BF53B753F397540007541407542037588
:2009E20082000208587543397544007545407546037547007582001208BA85393D747F55E5
:200A02003DC4540F75F00AA4FF740F553D2FF539E53AF53DC4540F75F00AA4FF740F553D4D
:200A22002FF53AE53BFF30E624EF30E505753C018003753C00853B3D741F553DC4540F7550
:200A4200F00AA4FE740F553D2EF53B8015EFF53DC4540F75F00AA4FF740F553D2FF53B75AD
:200A62003C0290003975F04022AF8275F00AE54F84C454F0FE75F00AE54F84E5F04EF539D0
:200A820075F00AEF84C454F0FE75F00AEF84E5F04EF53A75F00AE54D84C454F0FF75F00A9D
:200AA200E54D84E5F04FF53B75F00AE54E84C454F0FF75F00AE54E84E5F04FF53C753F3995
:200AC20075400075414075420475820302085875433975440075454075460475470075823C
:200AE200031208BAE53AF53DC4540F75F00AA4FF740F553D2FF53AE53BF53DC4540F75F042
:200B02000AA4FF740F553D2FF53BE53CF53DC4540F75F00AA4FF740F553D2FF53C900039E8
:200B220075F04022E4F555F55612065FE5828583F045F06002D2871203EDE4F533F5347501
:200B4200350275360075377F753800758231120540900BB81200621201011205B580FEAD88
:200B620082AE83AFF0755301755400E5532DFAE5543EFB8F048A828B838CF0120D61FA60BB
:120B82000A0553E4B553E4055480E0855382855483229E
:200D8100FF8181FF00FF0000F989898F898989FF0F0808FF8F8989F9FF8989F9010101FF5B
:200DA100FF8989FF9F9191FF7C7E13137E7C00417F7F49497F361C3E6341416322417F7FBF
:200DC10041633E1C417F7F495D4163417F7F491D01031C3E63415173727F7F08087F7F00A2
:200DE10000417F7F410000307040417F3F01417F7F081C7763417F7F414060707F7F0E1C9D
:200E01000E7F7F7F7F060C187F7F1C3E6341633E1C417F7F49090F061E3F21717F5E004131
:200E21007F7F09197F66266F4D5973320003417F7F4103007F7F40407F7F001F3F60603F6D
:200E41001F007F7F3018307F7F43673C183C6743074F78784F0700476371594D677374541B
:200E6100547C000000007F444438000000384444440000003844447F0000003C52524C00F3
:200E810000047F05010000007E4A4A6E020000007F0404780000007D0000000000008080CA
:200EA1007D000000007F10284400000000417F4060007C04047C04047C007C04047C0000D5
:200EC100007C44447C000081FF92120C0000000E1191F1FF81007C04040000004C547400A8
:200EE100000000047E4400000000007C40407C0000041860621C00000438603C3C613E0006
:200F0100443838440000428C700C02000064745C44000000000C0C000C0C00000000F0F8FC
:200F210098181870E080000000000080F0301818D8F0F07818181818F0E0F0F8181818F0C8
:200F4100F0000000F0F8181818F0F0000000F0F81818183838181898F8F00000C0C0703020
:200F61003010101010303070F8181818F0F000000080C0E030301010F010103070E0C0E040
:200F810030301010F010103030F8181818F8F07030181898D8F00000000000000000000305
:200FA1000FF8E00003FF0701C101070F0380F0FCFF3F07008088808000073FFF000000FF67
:200FC100EFC0C0C0FFFF000000FFEFC0C0C0C0E3FF0C0400C0F07C0F0300001CFFC10000E9
:200FE1001C7F63637F1C1C3CFF000000FFEFC0C0C0FFFF8000003E77E3773E000080FF80A5
:2010010000003E77E3673E1C1CBE000000E1C0000C1E77F3E1800000000000000000000006
:201021000000070F0C0F0C0F070F0C0C0C0F030F0F0C0C0E0301070F0C0C0C0C0C0C0C0C59
:201041000C0C0C0C0C0F0C0C0C0C0C0C0C0C0C0F0C0C0C0E07010000000000000001030685
:2010610004040C0C0C0E06070F0C0C0C0C0C0C0C0C0403030606040C0F0C0C0E0703010350
:201081000606040C0F0C0C0E070F0C0C0C0F0F070F0C0C0C0C0F070000000000000000004A
:2010A10000000000000000000000000000000000000000000000000000000000000000002F
:2010C10000000000000000000000000000000000000000000000000000000000000000000F
:2010E1000000000000000000000000000000000000000000000000000000000000000000EF
:20110100000000000000000000000000000000F008080808F080000000000000000000004E
:20112100000000000000000000000000FC8E06068EFC00000000808080000080808000008E
:20114100000000000000FC0C0C0C0C0C0C0C0818F0800080808080808000000000000000AE
:20116100000000000000008080000000008080808000000000FE060606FC000000808080E2
:201181000000000000808080000000000000FE0700000000011FF07FC303030307C303039E
:2011A10007FFC3030303838303030EFEC7C7070707FFC383030303830303038383030307B4
:2011C100FCC00000000007FE0000000E0E0000207C0F0703C383070303C3F3C30303038324
:2011E1008303030E0E0703430303078FF3C30101038303C7FF87070707FF0E07030303039D
:20120100030EFC0E03030303030EFC0000FE87808080FE80808087FE8F8080808EDF8E8007
:20122100808F8F8080808F8F8080808F8F8F8080808FFF8F80808F8F808080FF8F808080FB
:201241008FFF00000000FF878080808787808080E0F0C0808787C0808083FF8F8080808F6D
:201261008F80808080E0C080808486FFFF8F8080838FFF03C1FF400000FFF0E0C080808084
:2012810006F63FF0C080808006F63F00000303030303030103030303030303030303030370
:2012A1000303030303030303030303030303030303030101030303030303030303030303D1
:2012C1000303000000000101010303030303010100000103030301030303030303030303CD
:2012E100030303030301010103030301030303030303013F73606060701F01000101030354
:201301000303000001010303030300000000000000000000000000000000000000000000B8
:201321000000000000000000000000000000000000000000000000000000000000000000AC
:2013410000000000000000000000000000000000000000000000000000000000000000008C
:2013610000000000000000000000000000000000000000000000000000000000000000006C
:2013810000C0F0F0F0F8783C3C3C3C3C7CF8F8F0F0E0C0000000000000E0FFFFFFFFFF0158
:2013A10000000000000000000FFFFFFFFFFC000000000007FFFFFFFFFF80000000000000A3
:2013C1000000F0FFFFFFFF1F00000000000000070F0F1F1F3E3C3C3C3C3C3E1F1F0F0F0793
:2013E10001000000000000000000000000000000000000000000000000000000000001FFEB
:0814010001FF01FF08F0F008F3
:200B9400F9E5084509450A450B60777800C308E50B20E73BE50825E0F508E50933F509E52F
:200BB4000A33F50AE50B33F50BE5829508E5839509E5F0950AE9950B50D4C3E50B13F50BD1
:200BD400E50A13F50AE50913F509E50813F508E5829508FCE5839509FDE5F0950AFEE99511
:200BF4000B4007F98EF08D838C82C3E50B13F50BE50A13F50AE50913F509E50813F508D85F
:030C1400CEE92204
:200C17007A10E4FBFCE58225E0F582E58333F583EB33FBEC33FCEB9508F5F0EC95094006F1
:090C3700FCABF0438201DADD227E
:200C4000FB7A20E4FCFDFEFFE5822582F582E58333F583E5F033F5F0EB33FB4017DAE980ED
:200C600042E5822582F582E58333F583E5F033F5F0EB33FBEC33FCED33FDEE33FEEF33FF1C
:200C8000EC9508ED9509EE950AEF950B4013EC9508FCED9509FDEE950AFEEF950BFF4382E6
:050CA00001DABEEB22A9
:06003500E478FFF6D8FD9F
:200013007900E94400601B7A00901409780075A000E493F2A308B8000205A0D9F4DAF27577
:02003300A0FF2C
:1B0CA50020F71130F6138883A88220F509F6A8837583002280FEF280F5F0224E
:20003B007800E84400600A790075A000E4F309D8FC7800E84400600C7900900000E4F0A3C5
:04005B00D8FCD9FAFA
:200CC000F9C2D530E715D2D5E4C39582F582E49583F583E495F0F5F0E499F9E50B30E71528
:200CE000E4C39508F508E49509F509E4950AF50AE4950BF50BE9120B9430D512E4C39582BE
:0F0D0000F582E49583F583E495F0F5F0E499220C
:200D0F00FBC2D530E715D2D5E4C39582F582E49583F583E495F0F5F0E49BFBE50B30E717D0
:200D2F00B2D5E4C39508F508E49509F509E4950AF50AE4950BF50BEB120C4030D513FBE416
:120D4F00C39582F582E49583F583E495F0F5F0E49B22DE
:0D000600758156120D7DE582600302000336
:1C0D610020F71430F6148883A88220F507E6A88375830022E280F7E49322E022A1
:040D7D007582002259
:00000001FF
