:03000000020006F5
:03005F0002000399
:03000300020942AD
:20006200C292D29275210375823E12009375210375823F1200937521037582B8120093757D
:2000820021037582401200937521037582C0020093AF82852182C0071200B6D007C2978FD2
:2000A200820200ABD2970200ABAF82C2968FA0D295C29522E582FF24FC4026EF2F2F900098
:2000C200C4730200D00200D50200DA0200DFC294C29322D294C29322C294D29322D294D2C2
:2000E20093227EB87F008E82752103C007C006120093752103758240120093D006D0077C1B
:20010200007D00758200C007C006C005C0041200A6D004D005D006D0070CBC00010DC3ECC0
:200122009440ED6480948040DA0EBE00010FC374BF9EE464808FF063F08095F050A822AD14
:2001420082AE83AFF08D828E838FF0120E54FC60188C820DBD00010EC007C006C005120178
:200162009ED005D006D00780DC22E58275F004A42474FE740E35F0FF7D00ED2EF582E43FFD
:20018200F583E493F582C007C006C0051200A6D005D006D0070DBD040040DF22AF82C3EF79
:2001A200648094C1405674DA8FF063F08095F0404B7E00EFFC3395E0FDEC24BFC2D575F0E5
:2001C2000730E704B2D5F404A430D50AF42401C5F0F43400C5F0249CFC740E35F0FDEE2CA4
:2001E200F582E43DF583E493F582C007C0061200A6D006D0070EBE070040B822C3EF64808A
:2002020094E1405674FA8FF063F08095F0404B7E00EFFC3395E0FDEC249FC2D575F0073011
:20022200E704B2D5F404A430D50AF42401C5F0F43400C5F02452FC740F35F0FDEE2CF5824C
:20024200E43DF583E493F582C007C0061200A6D006D0070EBE070040B822BF20137F007550
:200262008200C0071200A6D0070FBF070040F0227F00EF90100893F582C0071200A6D00707
:200282000FBF070040EC2285822285832385F024F525752700752800752900752A00752B1C
:2002A20000752C00752D00E4F52EF52FF530E5224523452445257005F58202016C75260071
:2002C200C3E49522E49523E49524E464808525F063F08095F0504DAA260526EA2427F97590
:2002E200080AE4F509F50AF50B8522828523838524F0E525C001120DB3AA82D001A7027564
:20030200080AE4F509F50AF50B8522828523838524F0E525120E0285822285832385F024E2
:20032200F525809CE52614FFEF20E720758200C0071200A6D007EF2427F98782C0071201EE
:200342006C7582001200A6D0071F80DC22AE82E583FF20E733C3EE9408EF6480948050288F
:20036200758201C007C0061200B6AD3174B82DF582752101120093D006D0078E0574402D23
:20038200F582752101020093C374079EE464808FF063F08095F05031C3EE9410EF64809400
:2003A200805026758202C007C0061200B6AD3174B82DF582752102120093D006D0077440AB
:2003C2002EF582752102020093227F008F31753200900000C00712034FD007EF75F080A437
:2003E200240FFD741035F0FE7C00EC2DF582E43EF583E493F582C007C006C005C004120068
:20040200A6D004D005D006D0070CEC24C050DB8F31753200900008C00712034FD007EF7572
:20042200F080A4240FFD741035F0FE7C40EC2DF582E43EF583E493F582C007C006C005C0E9
:20044200041200A6D004D005D006D0070CBC800040DB0FBF080050030203CE221200621281
:2004620000E490000122AE82AF83EE4F60147C657D001CBCFF011DEC4D70F71EBEFF011FE2
:2004820080E82275080F750900120D0AAE82AF837C007D00C3EC9EED9F50070CBC00F50D48
:2004A20080F222D290D29122D291D2909001F4120485C2909001F4020485C2919000FA1289
:2004C2000485D2909000FA120485D2919000FA120485C2909000FA020485C2919000FA122C
:2004E2000485C2909000FA120485D2919000FA120485D2909000FA020485C2919000FA120C
:200502000485C2909000FA120485D2919001F4020485C2919000FA120485D2909000FA12F0
:200522000485D2919001F4020485AF827E00C2919000FAC007C006120485D006D0078F04C9
:200542007D008EF005F08006EC2CFCED33FDD5F0F7EC30E704D2908002C2909000FAC007A8
:20056200C006120485D2919001F4120485D006D0070EBE080040B7C291D2909001F41204CD
:2005820085D2919001F4120485A290227F007E00C291D2909001F4C007C006120485D2913B
:2005A2009000FA120485D006D007A290E433FD7407C39EF5F005F0ED800225E0D5F0FB42F5
:2005C200079000FAC007C006120485D006D0070EBE080040BB8F8222AE82AF837C007D0056
:2005E200C3EC9EED9F50070CBC00F50D80F222AF82C0071204AAD0077582D0C00712052C0B
:20060200D0079200E433FEBE0109C0071204AAD00780E58F8212052C85388212052C0204F3
:20062200DCAF82C0071204AAD0077582D0C00712052CD0079201E433FEBE0109C007120458
:20064200AAD00780E58F8212052C1204BC7582D112052C12058EAF82C007120514C29090D7
:2006620001F4120485D2909001F4120485D0078F8222AF82C0071204AAD0077582D0C0073F
:2006820012052CD0079202E433FEBE0109C0071204AAD00780E58F8212052C7E007F00AC0D
:2006A2003C7D00C3EE9CEF9D5027EE2539FBEF353AFCAD3B8B828C838DF0120E54F582C062
:2006C20007C00612052CD006D0070EBE00D10F80CE0204DCAF82C0071204AAD0077582D029
:2006E200C00712052CD0079203E433FEBE0109C0071204AAD00780E58F8212052C1204BCBC
:200702007582D112052CAD3DAE3EAF3FC007C006C00512058EAC82D005D006D0078D828EC4
:20072200838FF0EC120D98754201754300C3E5429540E5439541504AC007C006C0051204E3
:20074200FCD005D006D007E5422DF8E5433EF98F02C007C006C005C002C001C00012058EA3
:20076200AC82D000D001D002D005D006D007888289838AF0EC120D980542E4B542AF054308
:2007820080AB120514C2909001F4120485D2909001F4020485AF8275F00AE54684C454F0C6
:2007A200FE75F00AE54684E5F04EF53375F00AE54584C454F0FE75F00AE54584E5F04EF578
:2007C2003475F00AE54484C454F0FE75F00AE54484E5F0FD4EF535BF00028005BF011080C5
:2007E2000874404535F535800674604535F535753933753A00753B40753C03758200020666
:2008020074753D33753E00753F407540037541007582001206D6853337747F5537C4540FEE
:2008220075F00AA4FF740F55372FF533E534F537C4540F75F00AA4FF740F55372FF534E574
:2008420035FF30E624EF30E5057536018003753600853537741F5537C4540F75F00AA4FEFD
:20086200740F55372EF5358015EFF537C4540F75F00AA4FF740F55372FF535753602900081
:200882003375F04022AF8275F00AE54984C454F0FE75F00AE54984E5F04EF53375F00AEF3A
:2008A20084C454F0FE75F00AEF84E5F04EF53475F00AE54784C454F0FF75F00AE54784E554
:2008C200F04FF53575F00AE54884C454F0FF75F00AE54884E5F04FF536753933753A007512
:2008E2003B40753C04758203020674753D33753E00753F407540047541007582031206D66D
:20090200E534F537C4540F75F00AA4FF740F55372FF534E535F537C4540F75F00AA4FF74FD
:200922000F55372FF535E536F537C4540F75F00AA4FF740F55372FF53690003375F040224E
:20094200E4F54FF55012045EE5828583F045F06002D2871203CC9003E81204681200E47520
:20096200310175320090000112034F90140F75F0801201419003E812046875441175450F2F
:2009820075463B75820112079775470C75480D7549057582011208871200E4753102753284
:2009A2000090000112034F90142075F0801201419007D01204681200E4E4F531F532F582C0
:2009C200F58312034F12080385824A85834B85F04C7402254AFDE4354BFEAF4C8D828E8358
:2009E2008FF0120E5475F00A84FD8D4F755000AC4FE550FD3395E0FE8C828D838EF01202EE
:200A0200897402254AFDE4354BFEAF4C8D828E838FF0120E5475F00A84ADF08D4F755000C8
:200A2200AC4FE550FD3395E0FE8C828D838EF012028990142D75F0801201417401254AFDBD
:200A4200E4354BFEAF4C8D828E838FF0120E5475F00A84FD8D4F755000AC4FE550FD33959E
:200A6200E0FE8C828D838EF01202897401254AFDE4354BFEAF4C8D828E838FF0120E547597
:200A8200F00A84ADF08D4F755000AC4FE550FD3395E0FE8C828D838EF012028990142D7546
:200AA200F080120141AD4AAE4BAF4C8D828E838FF0120E5475F00A84FD8D4F755000AC4FE6
:200AC200E550FD3395E0FE8C828D838EF0120289AD4AAE4BAF4C8D828E838FF0120E547590
:200AE200F00A84ADF08D4F755000AC4FE550FD3395E0FE8C828D838EF0120289753102750F
:200B0200320090000012034F1208ED85824A85834B85F04C7401254AFDE4354BFEAF4C8D76
:200B2200828E838FF0120E5475F00A84FD8D4F755000AC4FE550FD3395E0FE8C828D838E1D
:200B4200F01202897401254AFDE4354BFEAF4C8D828E838FF0120E5475F00A84ADF08D4F49
:200B6200755000AC4FE550FD3395E0FE8C828D838EF012028990142D75F080120141740222
:200B8200254AFDE4354BFEAF4C8D828E838FF0120E5475F00A84FD8D4F755000AC4FE550B6
:200BA200FD3395E0FE8C828D838EF01202897402254AFDE4354BFEAF4C8D828E838FF01267
:200BC2000E5475F00A84ADF08D4F755000AC4FE550FD3395E0FE8C828D838EF012028990E4
:200BE200142D75F0801201417403254AFDE4354BFEAF4C8D828E838FF0120E5475F00A8433
:200C0200FD8D4F755000AC4FE550FD3395E0FE8C828D838EF01202897403254AFDE4354BE1
:200C2200FEAF4C8D828E838FF0120E5475F00A84ADF08D4F755000AC4FE550FD3395E0FEA2
:200C42008C828D838EF01202899003E81204680209B8AD82AE83AFF0754D01754E00E54DE6
:200C62002DFAE54E3EFB8F048A828B838CF0120E54FA600A054DE4B54DE4054E80E0854D3D
:050C820082854E832273
:200E7400FF8181FF00FF0000F989898F898989FF0F0808FF8F8989F9FF8989F9010101FF67
:200E9400FF8989FF9F9191FF7C7E13137E7C00417F7F49497F361C3E6341416322417F7FCB
:200EB40041633E1C417F7F495D4163417F7F491D01031C3E63415173727F7F08087F7F00AE
:200ED40000417F7F410000307040417F3F01417F7F081C7763417F7F414060707F7F0E1CA9
:200EF4000E7F7F7F7F060C187F7F1C3E6341633E1C417F7F49090F061E3F21717F5E00413E
:200F14007F7F09197F66266F4D5973320003417F7F4103007F7F40407F7F001F3F60603F79
:200F34001F007F7F3018307F7F43673C183C6743074F78784F0700476371594D6773745427
:200F5400547C000000007F444438000000384444440000003844447F0000003C52524C00FF
:200F740000047F05010000007E4A4A6E020000007F0404780000007D0000000000008080D6
:200F94007D000000007F10284400000000417F4060007C04047C04047C007C04047C0000E1
:200FB400007C44447C000081FF92120C0000000E1191F1FF81007C04040000004C547400B4
:200FD400000000047E4400000000007C40407C0000041860621C00000438603C3C613E0012
:200FF400443838440000428C700C02000064745C44000000000C0C000C0C000000000000F1
:201014000000000000000000000000000000000000000000000000000000000000000000BC
:2010340000000000000000000000000000000000000000000000000000000000000000009C
:2010540000000000000000000000000000000000000000000000000000000000000000007C
:2010740000000000000000000000000000000000000000000000000000000000000000005C
:20109400C0E0E0F07070707070E0E0000000000000000000000000000000000000000000DC
:2010B40000E0F8F87C1C1C1C1C0000E0E0E06000000000000000000000000000C0F0F0F0D0
:2010D40070707070F0F0E0E0C000000000C0F0F0F07070707070F0F0E0E0C080000000003C
:2010F4000000000000C0E0F0F0F0F0F0000000000000000000000000000000000000001F6D
:201114003F3F7FF8F0F0E0E0C000000080E0F0F87C1C1E0E0E0E1EFEFCFCF00000000EEE3E
:20113400FFFFFF0F0E0E0E000EEEFFFFFF0F0E0E0E02000000000000000000F8FFFFFFC379
:20115400C0C0C0E0F0FF7F3F1F000000F8FFFF7F0300000000000000FFFFFFFF1C000000FF
:2011740080E0F0FC7F1F0701017FFFFFFC0000000000000000000000000000007078F0E037
:20119400E0E0E0E0F07F7F3F1F0700001F7F7FFFF0E0E0E0F0707C3F1F0F03000080FCFFF5
:2011B400FF3F0100000000007CFFFFFFE1E06000000000000000000000E0FFFFFF0F010154
:2011D40001010101000000000000E0FFFFFFEFE0E0E0E0E070787C3E1F0F0701C0E0F8FE5D
:2011F4007F1F0707070707070707FFFFFFFE00000000000000000000000000000080F0801A
:20121400808000008000000080000000000000000000000000000000003038383C3F1F0F71
:20123400030000000000000000000000000000000000000000000000000000000000000097
:2012540000000000000000000000000000000000000000000000000000000000000000007A
:2012740000000000000000000000000000000000000000000000000000000000101F11100A
:20129400180F0040673E1C070100000000000080C0C0C0000000000000000000000000004A
:2012B40000000000000000C0C000000000000000000000000000000000000000C0C0C0C09A
:2012D400C0C0800000000000000000000000000000000000000000000000000000000000FA
:2012F400000000C0C00000000000000000000000000000000000000000000000000000005A
:201314000000000000000000000000C0F0383E333137FFF00080F83E0C06E6FE0C80F83E9B
:201334000C06E6FE0C80FC3E0080F83E0C06E6FE0C0486FE3E000000000000F8FFCFCCCC01
:201354007E7B0100FCCCC646FE7E0280F83E0C06E6FE0C00F8DCD6D6D64E0C80FC3E0C06F9
:201374000600F87E0000F8DCD6D6D64E0C00F8DCD6D6D64E0C00000000000000000000007D
:20139400000000000000000000000000000000000000000000000000000000000000000039
:2013B400000000000000000000000000000000000000000000000000000000000000000019
:2013D4000000000000000000000000000000000000000000000000000000000000000000F9
:2013F4000607030000000000000000000000000000000000000000000000004465746563E4
:1B14140074696E6720636C6F636B2E00496E206C6F6F70206E6F772E003A0044
:200C8700F9E5084509450A450B60777800C308E50B20E73BE50825E0F508E50933F509E53B
:200CA7000A33F50AE50B33F50BE5829508E5839509E5F0950AE9950B50D4C3E50B13F50BDD
:200CC700E50A13F50AE50913F509E50813F508E5829508FCE5839509FDE5F0950AFEE9951D
:200CE7000B4007F98EF08D838C82C3E50B13F50BE50A13F50AE50913F509E50813F508D86B
:030D0700CEE92210
:200D0A007A10E4FBFCE58225E0F582E58333F583EB33FBEC33FCEB9508F5F0EC95094006FD
:090D2A00FCABF0438201DADD228A
:200D3300FB7A20E4FCFDFEFFE5822582F582E58333F583E5F033F5F0EB33FB4017DAE980F9
:200D530042E5822582F582E58333F583E5F033F5F0EB33FBEC33FCED33FDEE33FEEF33FF28
:200D7300EC9508ED9509EE950AEF950B4013EC9508FCED9509FDEE950AFEEF950BFF4382F2
:050D930001DABEEB22B5
:06003500E478FFF6D8FD9F
:200013007900E94400601B7A0090142F780075A000E493F2A308B8000205A0D9F4DAF27551
:02003300A0FF2C
:1B0D980020F71130F6138883A88220F509F6A8837583002280FEF280F5F0225A
:20003B007800E84400600A790075A000E4F309D8FC7800E84400600C7900900000E4F0A3C5
:04005B00D8FCD9FAFA
:200DB300F9C2D530E715D2D5E4C39582F582E49583F583E495F0F5F0E499F9E50B30E71534
:200DD300E4C39508F508E49509F509E4950AF50AE4950BF50BE9120C8730D512E4C39582D6
:0F0DF300F582E49583F583E495F0F5F0E4992219
:200E0200FBC2D530E715D2D5E4C39582F582E49583F583E495F0F5F0E49BFBE50B30E717DC
:200E2200B2D5E4C39508F508E49509F509E4950AF50AE4950BF50BEB120D3330D513FBE42E
:120E4200C39582F582E49583F583E495F0F5F0E49B22EA
:0D000600758150120E70E582600302000348
:1C0E540020F71430F6148883A88220F507E6A88375830022E280F7E49322E022AD
:040E70007582002265
:00000001FF
