:03000000020008F3
:0300610002000397
:0500030012044480FE20
:10006400C292D29275080375823E120095750803F8
:1000740075823F1200957508037582B81200957554
:1000840008037582401200957508037582C002004A
:1000940095AF82850882C0071200B8D007C2978F37
:1000A400820200ADD2970200ADAF82C2968FA0D279
:1000B40095C29522E582FF24FC4026EF2F2F900065
:1000C400C6730200D20200D70200DC0200E1C2942F
:1000D400C29322D294C29322C294D29322D294D2B3
:1000E40093227EB87F00C374BF9EE464808FF06364
:1000F400F08095F0404C8E82750803C007C006124C
:100104000095750803758240120095D006D0077CCF
:10011400007D00C3EC9440ED64809480501D758292
:1001240000C007C006C005C0041200A8D004D00552
:10013400D006D0070CBC00DB0D80D80EBE00A70F84
:1001440080A422AD82AE83AFF08D828E838FF012B5
:1001540005D8FC60188C820DBD00010EC007C006D6
:10016400C0051201A5D005D006D00780DC22E582A7
:1001740025E025E024F8FEE43405FF7D00BD0400FD
:10018400501EED2EF582E43FF583E493F582C0071B
:10019400C006C0051200A8D005D006D0070D80DD2A
:1001A40022AF82C3EF648094C1404074DA8FF0635D
:1001B400F08095F040357E00BE0700400122EFFC40
:1001C4003395E0EC24BF75F007A42420FCE4340646
:1001D400FDEE2CF582E43DF583E493F582C007C07F
:1001E400061200A8D006D0070E80CDC3EF64809419
:1001F400E1403F74FA8FF063F08095F040347E0064
:10020400BE07005044EFFC3395E0EC249F75F007E3
:10021400A424D6FCE43406FDEE2CF582E43DF583FB
:10022400E493F582C007C0061200A8D006D0070EDA
:1002340080CEBF20147F00BF0700500D758200C020
:10024400071200A8D0070F80EE2285820985830A51
:1002540085F00BF50C750E00750F00751000751107
:1002640000751200751300751400E4F515F516F504
:1002740017E509450A450B450C7005F58202017224
:10028400750D00C3E49509E4950AE4950BE46480D4
:10029400850CF063F08095F0504DAA0D050DEA240D
:1002A4000EF9751C0AE4F51DF51EF51F85098285F6
:1002B4000A83850BF0E50CC001120537AA82D00130
:1002C400A702751C0AE4F51DF51EF51F8509828534
:1002D4000A83850BF0E50C12058685820985830A5D
:1002E40085F00BF50C809CE50D14FFEF20E72075DD
:1002F4008200C0071200A8D007EF240EF98782C03D
:10030400071201727582001200A8D0071F80DC2238
:10031400AE82E583FF20E733C3EE9408EF64809454
:10032400805028758201C007C0061200B8AD187449
:10033400B82DF582750801120095D006D0078E05F8
:1003440074402DF582750801020095C374079EE47C
:1003540064808FF063F08095F05031C3EE9410EF19
:10036400648094805026758202C007C0061200B8CB
:10037400AD1874B82DF582750802120095D006D018
:100384000774402EF582750802020095227F00BF93
:1003940008004001228F18751900900000C0071250
:1003A4000314D007EF75F080A4248CFD740735F096
:1003B400FE7C00EC24C04022EC2DF582E43EF58363
:1003C400E493F582C007C006C005C0041200A8D09B
:1003D40004D005D006D0070C80D98F187519009069
:1003E4000008C007120314D007EF75F080A4248C12
:1003F400FD740735F0FE7C40BC80005022EC2DF5E6
:1004040082E43EF583E493F582C007C006C005C0CC
:10041400041200A8D004D005D006D0070C80D90F50
:10042400020393AE82AF83EE4F60147C657D001CA3
:10043400BCFF011DEC4D70F71EBEFF011F80E822BA
:0B0444001200641200E612039180FE1B
:1005F800FF8181FF00FF0000F989898F898989FFC0
:100608000F0808FF8F8989F9FF8989F9010101FF1E
:10061800FF8989FF9F9191FF7C7E13137E7C0041A7
:100628007F7F49497F361C3E6341416322417F7F7A
:1006380041633E1C417F7F495D4163417F7F491D86
:1006480001031C3E63415173727F7F08087F7F005E
:1006580000417F7F410000307040417F3F01417F72
:100668007F081C7763417F7F414060707F7F0E1C4D
:100678000E7F7F7F7F060C187F7F1C3E6341633EA1
:100688001C417F7F49090F061E3F21717F5E004193
:100698007F7F09197F66266F4D5973320003417FAA
:1006A8007F4103007F7F40407F7F001F3F60603FA6
:1006B8001F007F7F3018307F7F43673C183C6743BB
:1006C800074F78784F0700476371594D6773745423
:1006D800547C000000007F44443800000038444443
:1006E800440000003844447F0000003C52524C0053
:1006F80000047F05010000007E4A4A6E02000000E7
:100708007F0404780000007D000000000000808065
:100718007D000000007F10284400000000417F4059
:1007280060007C04047C04047C007C04047C0000DD
:10073800007C44447C000081FF92120C0000000EF3
:100748001191F1FF81007C04040000004C547400F6
:10075800000000047E4400000000007C40407C0053
:1007680000041860621C00000438603C3C613E00D4
:10077800443838440000428C700C02000064745CF9
:10078800440000000000000000000000000000001D
:100798000000000000000000000000000000000051
:1007A8000000000000000000000000000000000041
:1007B8000000000000000000000000000000000031
:1007C8000000000000000000000000000000000021
:1007D8000000000000000000000000000000000011
:1007E8000000000000000000000000000000000001
:1007F80000000000000000000000000000000000F1
:10080800000000000000000000C0E0E0F070707020
:100818007070E0E000000000000000000000000030
:1008280000000000000000000000E0F8F87C1C1C3C
:100838001C1C0000E0E0E060000000000000000078
:100848000000000000C0F0F0F070707070F0F0E090
:10085800E0C000000000C0F0F0F07070707070F040
:10086800F0E0E0C080000000000000000000C0E0F0
:10087800F0F0F0F0F00000000000000000000000C0
:1008880000000000000000001F3F3F7FF8F0F0E08C
:10089800E0C000000080E0F0F87C1C1E0E0E0E1E6A
:1008A800FEFCFCF00000000EEEFFFFFF0F0E0E0E28
:1008B800000EEEFFFFFF0F0E0E0E020000000000FC
:1008C80000000000F8FFFFFFC3C0C0C0E0F0FF7FDA
:1008D8003F1F000000F8FFFF7F030000000000003A
:1008E80000FFFFFFFF1C00000080E0F0FC7F1F07F7
:1008F80001017FFFFFFC0000000000000000000075
:1009080000000000007078F0E0E0E0E0E0F07F7FB9
:100918003F1F0700001F7F7FFFF0E0E0E0F0707CE2
:100928003F1F0F03000080FCFFFF3F010000000095
:10093800007CFFFFFFE1E060000000000000000015
:100948000000E0FFFFFF0F010101010101000000AD
:10095800000000E0FFFFFFEFE0E0E0E0E070787CFF
:100968003E1F0F0701C0E0F8FE7F1F0707070707B4
:10097800070707FFFFFFFE0000000000000000005F
:1009880000000000000080F08080800000800000EF
:1009980000800000000000000000000000000000CF
:1009A80000003038383C3F1F0F03000000000000F3
:1009B800000000000000000000000000000000002F
:1009C800000000000000000000000000000000001F
:1009D800000000000000000000000000000000000F
:1009E80000000000000000000000000000000000FF
:1009F80000000000000000000000000000000000EF
:100A08000000000000101F1110180F0040673E1C66
:100A1800070100000000000080C0C0C00000000006
:100A280000000000000000000000000000000000BE
:100A3800C0C000000000000000000000000000002E
:100A48000000000000C0C0C0C0C0C080000000009E
:100A5800000000000000000000000000000000008E
:100A6800000000000000000000000000C0C00000FE
:100A7800000000000000000000000000000000006E
:100A8800000000000000000000000000000000005E
:100A980000000000C0F0383E333137FFF00080F826
:100AA8003E0C06E6FE0C80F83E0C06E6FE0C80FCCA
:100AB8003E0080F83E0C06E6FE0C0486FE3E000072
:100AC80000000000F8FFCFCCCC7E7B0100FCCCC638
:100AD80046FE7E0280F83E0C06E6FE0C00F8DCD6E8
:100AE800D6D64E0C80FC3E0C060600F87E0000F8B8
:100AF800DCD6D6D64E0C00F8DCD6D6D64E0C000086
:100B080000000000000000000000000000000000DD
:100B180000000000000000000000000000000000CD
:100B280000000000000000000000000000000000BD
:100B380000000000000000000000000000000000AD
:100B4800000000000000000000000000000000009D
:100B5800000000000000000000000000000000008D
:100B6800000000000000000000060703000000006D
:100B7800000000000000000000000000000000006D
:040B88000000000069
:10044F00F9E51C451D451E451F60777800C308E57B
:10045F001F20E73BE51C25E0F51CE51D33F51DE5E9
:10046F001E33F51EE51F33F51FE582951CE58395B9
:10047F001DE5F0951EE9951F50D4C3E51F13F51F19
:10048F00E51E13F51EE51D13F51DE51C13F51CE503
:10049F0082951CFCE583951DFDE5F0951EFEE99503
:1004AF001F4007F98EF08D838C82C3E51F13F51F54
:1004BF00E51E13F51EE51D13F51DE51C13F51CD8E0
:1004CF00CEE922FB7A20E4FCFDFEFFE5822582F5D2
:1004DF0082E58333F583E5F033F5F0EB33FB40171B
:1004EF00DAE98042E5822582F582E58333F583E5FB
:1004FF00F033F5F0EB33FBEC33FCED33FDEE33FE75
:10050F00EF33FFEC951CED951DEE951EEF951F40FB
:10051F0013EC951CFCED951DFDEE951EFEEF951F42
:08052F00FF438201DABEEB225A
:06003700E478FFF6D8FD9D
:100015007900E94400601B7A00900B8C780075A08C
:1000250000E493F2A308B8000205A0D9F4DAF2754A
:02003500A0FF2A
:10003D007800E84400600A790075A000E4F309D85F
:10004D00FC7800E84400600C7900900000E4F0A317
:04005D00D8FCD9FAF8
:10053700F9C2D530E715D2D5E4C39582F582E495A3
:1005470083F583E495F0F5F0E499F9E51F30E715B5
:10055700E4C3951CF51CE4951DF51DE4951EF51ED9
:10056700E4951FF51FE912044F30D512E4C39582B5
:10057700F582E49583F583E495F0F5F0E49922FBA1
:10058700C2D530E715D2D5E4C39582F582E49583C9
:10059700F583E495F0F5F0E49BFBE51F30E717B230
:1005A700D5E4C3951CF51CE4951DF51DE4951EF5D2
:1005B7001EE4951FF51FEB1204D230D513FBE4C3DD
:1005C7009582F582E49583F583E495F0F5F0E49B55
:0105D7002201
:0D00080075811F1205F4E5826003020003FC
:1005D80020F71430F6148883A88220F507E6A8834C
:1005E80075830022E280F7E49322E02275820022DC
:00000001FF
